{
  "_format": "hh-sol-artifact-1",
  "contractName": "streamflix",
  "sourceName": "contracts/streamflix.sol",
  "abi": [
    {
      "anonymous": false,
      "inputs": [
        {
          "indexed": true,
          "internalType": "uint256",
          "name": "stremId",
          "type": "uint256"
        },
        {
          "indexed": true,
          "internalType": "address",
          "name": "creator",
          "type": "address"
        },
        {
          "indexed": false,
          "internalType": "string",
          "name": "stramCode",
          "type": "string"
        },
        {
          "indexed": false,
          "internalType": "string",
          "name": "title",
          "type": "string"
        },
        {
          "indexed": false,
          "internalType": "string",
          "name": "description",
          "type": "string"
        },
        {
          "indexed": false,
          "internalType": "bool",
          "name": "premium",
          "type": "bool"
        }
      ],
      "name": "StreamCreated",
      "type": "event"
    },
    {
      "inputs": [
        {
          "internalType": "string",
          "name": "_streamCode",
          "type": "string"
        },
        {
          "internalType": "bool",
          "name": "_premium",
          "type": "bool"
        },
        {
          "internalType": "string",
          "name": "_title",
          "type": "string"
        },
        {
          "internalType": "string",
          "name": "_description",
          "type": "string"
        }
      ],
      "name": "createStream",
      "outputs": [],
      "stateMutability": "nonpayable",
      "type": "function"
    },
    {
      "inputs": [],
      "name": "getAllArtists",
      "outputs": [
        {
          "components": [
            {
              "internalType": "uint256",
              "name": "userId",
              "type": "uint256"
            },
            {
              "internalType": "address",
              "name": "userAddress",
              "type": "address"
            },
            {
              "internalType": "string",
              "name": "name",
              "type": "string"
            },
            {
              "internalType": "string",
              "name": "description",
              "type": "string"
            },
            {
              "internalType": "string",
              "name": "profileImage",
              "type": "string"
            }
          ],
          "internalType": "struct streamflix.User[]",
          "name": "",
          "type": "tuple[]"
        }
      ],
      "stateMutability": "view",
      "type": "function"
    },
    {
      "inputs": [
        {
          "internalType": "string",
          "name": "_name",
          "type": "string"
        },
        {
          "internalType": "string",
          "name": "_description",
          "type": "string"
        },
        {
          "internalType": "string",
          "name": "_profileImage",
          "type": "string"
        }
      ],
      "name": "registerUser",
      "outputs": [
        {
          "internalType": "uint256",
          "name": "",
          "type": "uint256"
        }
      ],
      "stateMutability": "nonpayable",
      "type": "function"
    },
    {
      "inputs": [
        {
          "internalType": "string",
          "name": "",
          "type": "string"
        }
      ],
      "name": "streamCodeToStream",
      "outputs": [
        {
          "internalType": "uint256",
          "name": "stremId",
          "type": "uint256"
        },
        {
          "internalType": "string",
          "name": "stramCode",
          "type": "string"
        },
        {
          "internalType": "string",
          "name": "title",
          "type": "string"
        },
        {
          "internalType": "string",
          "name": "description",
          "type": "string"
        },
        {
          "internalType": "bool",
          "name": "premium",
          "type": "bool"
        },
        {
          "internalType": "bool",
          "name": "isLive",
          "type": "bool"
        }
      ],
      "stateMutability": "view",
      "type": "function"
    },
    {
      "inputs": [
        {
          "internalType": "uint256",
          "name": "",
          "type": "uint256"
        }
      ],
      "name": "streamIdToStream",
      "outputs": [
        {
          "internalType": "uint256",
          "name": "stremId",
          "type": "uint256"
        },
        {
          "internalType": "string",
          "name": "stramCode",
          "type": "string"
        },
        {
          "internalType": "string",
          "name": "title",
          "type": "string"
        },
        {
          "internalType": "string",
          "name": "description",
          "type": "string"
        },
        {
          "internalType": "bool",
          "name": "premium",
          "type": "bool"
        },
        {
          "internalType": "bool",
          "name": "isLive",
          "type": "bool"
        }
      ],
      "stateMutability": "view",
      "type": "function"
    },
    {
      "inputs": [
        {
          "internalType": "uint256",
          "name": "",
          "type": "uint256"
        }
      ],
      "name": "streamIdToUser",
      "outputs": [
        {
          "internalType": "address",
          "name": "",
          "type": "address"
        }
      ],
      "stateMutability": "view",
      "type": "function"
    },
    {
      "inputs": [
        {
          "internalType": "uint256",
          "name": "userId",
          "type": "uint256"
        },
        {
          "internalType": "string",
          "name": "_name",
          "type": "string"
        },
        {
          "internalType": "string",
          "name": "_description",
          "type": "string"
        },
        {
          "internalType": "string",
          "name": "_profileImage",
          "type": "string"
        }
      ],
      "name": "updateUser",
      "outputs": [],
      "stateMutability": "view",
      "type": "function"
    },
    {
      "inputs": [
        {
          "internalType": "uint256",
          "name": "",
          "type": "uint256"
        }
      ],
      "name": "userIdToUser",
      "outputs": [
        {
          "internalType": "uint256",
          "name": "userId",
          "type": "uint256"
        },
        {
          "internalType": "address",
          "name": "userAddress",
          "type": "address"
        },
        {
          "internalType": "string",
          "name": "name",
          "type": "string"
        },
        {
          "internalType": "string",
          "name": "description",
          "type": "string"
        },
        {
          "internalType": "string",
          "name": "profileImage",
          "type": "string"
        }
      ],
      "stateMutability": "view",
      "type": "function"
    },
    {
      "inputs": [
        {
          "internalType": "address",
          "name": "",
          "type": "address"
        }
      ],
      "name": "userMapping",
      "outputs": [
        {
          "internalType": "uint256",
          "name": "userId",
          "type": "uint256"
        },
        {
          "internalType": "address",
          "name": "userAddress",
          "type": "address"
        },
        {
          "internalType": "string",
          "name": "name",
          "type": "string"
        },
        {
          "internalType": "string",
          "name": "description",
          "type": "string"
        },
        {
          "internalType": "string",
          "name": "profileImage",
          "type": "string"
        }
      ],
      "stateMutability": "view",
      "type": "function"
    }
  ],
  "bytecode": "0x608060405234801561001057600080fd5b5061148f806100206000396000f3fe608060405234801561001057600080fd5b50600436106100935760003560e01c8063975a584a11610066578063975a584a14610112578063ccfe571714610125578063d637dcfa14610166578063d900ea5814610187578063f803ace31461019a57600080fd5b8063118b95351461009857806350839170146100c5578063612d859a146100d857806390302cd2146100fd575b600080fd5b6100ab6100a6366004610ed8565b6101af565b6040516100bc959493929190610f64565b60405180910390f35b6100ab6100d3366004610fc0565b610381565b6100eb6100e6366004610fc0565b6103b3565b6040516100bc96959493929190610fd9565b61011061010b3660046110d6565b610586565b005b610110610120366004611178565b6107b0565b61014e610133366004610fc0565b6004602052600090815260409020546001600160a01b031681565b6040516001600160a01b0390911681526020016100bc565b6101796101743660046111cf565b6109b7565b6040519081526020016100bc565b6100eb610195366004611257565b610b2d565b6101a2610b5a565b6040516100bc9190611294565b600260208190526000918252604090912080546001820154928201805491936001600160a01b031692916101e290611356565b80601f016020809104026020016040519081016040528092919081815260200182805461020e90611356565b801561025b5780601f106102305761010080835404028352916020019161025b565b820191906000526020600020905b81548152906001019060200180831161023e57829003601f168201915b50505050509080600301805461027090611356565b80601f016020809104026020016040519081016040528092919081815260200182805461029c90611356565b80156102e95780601f106102be576101008083540402835291602001916102e9565b820191906000526020600020905b8154815290600101906020018083116102cc57829003601f168201915b5050505050908060040180546102fe90611356565b80601f016020809104026020016040519081016040528092919081815260200182805461032a90611356565b80156103775780601f1061034c57610100808354040283529160200191610377565b820191906000526020600020905b81548152906001019060200180831161035a57829003601f168201915b5050505050905085565b60036020526000908152604090208054600182015460028301805492936001600160a01b03909216926101e290611356565b600560205260009081526040902080546001820180549192916103d590611356565b80601f016020809104026020016040519081016040528092919081815260200182805461040190611356565b801561044e5780601f106104235761010080835404028352916020019161044e565b820191906000526020600020905b81548152906001019060200180831161043157829003601f168201915b50505050509080600201805461046390611356565b80601f016020809104026020016040519081016040528092919081815260200182805461048f90611356565b80156104dc5780601f106104b1576101008083540402835291602001916104dc565b820191906000526020600020905b8154815290600101906020018083116104bf57829003601f168201915b5050505050908060030180546104f190611356565b80601f016020809104026020016040519081016040528092919081815260200182805461051d90611356565b801561056a5780601f1061053f5761010080835404028352916020019161056a565b820191906000526020600020905b81548152906001019060200180831161054d57829003601f168201915b5050506004909301549192505060ff8082169161010090041686565b610594600180546001019055565b600061059f60015490565b6040805160c0810182528281526020808201898152828401889052606083018790528815156080840152600160a08401819052600086815260058452949094208351815590518051959650929490936105fd93908501920190610e3f565b5060408201518051610619916002840191602090910190610e3f565b5060608201518051610635916003840191602090910190610e3f565b506080828101516004928301805460a09586015115156101000261ff00199315159390931661ffff19909116179190911790556000848152602092835260409081902080546001600160a01b03191633179055805160c081018252858152928301899052828101879052606083018690528715159183019190915260019282019290925290516006906106c9908890611391565b90815260200160405180910390206000820151816000015560208201518160010190805190602001906106fd929190610e3f565b5060408201518051610719916002840191602090910190610e3f565b5060608201518051610735916003840191602090910190610e3f565b5060808201516004909101805460a09093015115156101000261ff00199215159290921661ffff1990931692909217179055604051339082907f28c0edff7a0d38da6cd48487ae89195cf9fc2181f0cd4b486905e03c9dd23293906107a1908990889088908b906113ad565b60405180910390a35050505050565b6000848152600360209081526040808320815160a0810183528154815260018201546001600160a01b03169381019390935260028101805491928401916107f690611356565b80601f016020809104026020016040519081016040528092919081815260200182805461082290611356565b801561086f5780601f106108445761010080835404028352916020019161086f565b820191906000526020600020905b81548152906001019060200180831161085257829003601f168201915b5050505050815260200160038201805461088890611356565b80601f01602080910402602001604051908101604052809291908181526020018280546108b490611356565b80156109015780601f106108d657610100808354040283529160200191610901565b820191906000526020600020905b8154815290600101906020018083116108e457829003601f168201915b5050505050815260200160048201805461091a90611356565b80601f016020809104026020016040519081016040528092919081815260200182805461094690611356565b80156109935780601f1061096857610100808354040283529160200191610993565b820191906000526020600020905b81548152906001019060200180831161097657829003601f168201915b50505091909252505050604081019490945250606083019190915260809091015250565b6000805460019081018083556040805160a0810182528281523360208083019182528284018a8152606084018a9052608084018990528588526003825293872083518155915195820180546001600160a01b0319166001600160a01b03909716969096179095559151805193949193610a369260028501920190610e3f565b5060608201518051610a52916003840191602090910190610e3f565b5060808201518051610a6e916004840191602090910190610e3f565b50506040805160a0810182528381523360208083018281528385018b8152606085018b9052608085018a905260009384526002808452959093208451815590516001820180546001600160a01b0319166001600160a01b03909216919091179055915180519395509193610ae9939085019290910190610e3f565b5060608201518051610b05916003840191602090910190610e3f565b5060808201518051610b21916004840191602090910190610e3f565b50919695505050505050565b8051602081830181018051600682529282019190930120915280546001820180549192916103d590611356565b60606000610b6760005490565b67ffffffffffffffff811115610b7f57610b7f611033565b604051908082528060200260200182016040528015610beb57816020015b610bd86040518060a001604052806000815260200160006001600160a01b031681526020016060815260200160608152602001606081525090565b815260200190600190039081610b9d5790505b5090506000805b600054811015610e375760036000610c0b836001611410565b81526020808201929092526040908101600020815160a0810183528154815260018201546001600160a01b0316938101939093526002810180549192840191610c5390611356565b80601f0160208091040260200160405190810160405280929190818152602001828054610c7f90611356565b8015610ccc5780601f10610ca157610100808354040283529160200191610ccc565b820191906000526020600020905b815481529060010190602001808311610caf57829003601f168201915b50505050508152602001600382018054610ce590611356565b80601f0160208091040260200160405190810160405280929190818152602001828054610d1190611356565b8015610d5e5780601f10610d3357610100808354040283529160200191610d5e565b820191906000526020600020905b815481529060010190602001808311610d4157829003601f168201915b50505050508152602001600482018054610d7790611356565b80601f0160208091040260200160405190810160405280929190818152602001828054610da390611356565b8015610df05780601f10610dc557610100808354040283529160200191610df0565b820191906000526020600020905b815481529060010190602001808311610dd357829003601f168201915b505050505081525050838381518110610e0b57610e0b611428565b60200260200101819052508180610e219061143e565b9250508080610e2f9061143e565b915050610bf2565b509092915050565b828054610e4b90611356565b90600052602060002090601f016020900481019282610e6d5760008555610eb3565b82601f10610e8657805160ff1916838001178555610eb3565b82800160010185558215610eb3579182015b82811115610eb3578251825591602001919060010190610e98565b50610ebf929150610ec3565b5090565b5b80821115610ebf5760008155600101610ec4565b600060208284031215610eea57600080fd5b81356001600160a01b0381168114610f0157600080fd5b9392505050565b60005b83811015610f23578181015183820152602001610f0b565b83811115610f32576000848401525b50505050565b60008151808452610f50816020860160208601610f08565b601f01601f19169290920160200192915050565b8581526001600160a01b038516602082015260a060408201819052600090610f8e90830186610f38565b8281036060840152610fa08186610f38565b90508281036080840152610fb48185610f38565b98975050505050505050565b600060208284031215610fd257600080fd5b5035919050565b86815260c060208201526000610ff260c0830188610f38565b82810360408401526110048188610f38565b905082810360608401526110188187610f38565b9415156080840152505090151560a090910152949350505050565b634e487b7160e01b600052604160045260246000fd5b600082601f83011261105a57600080fd5b813567ffffffffffffffff8082111561107557611075611033565b604051601f8301601f19908116603f0116810190828211818310171561109d5761109d611033565b816040528381528660208588010111156110b657600080fd5b836020870160208301376000602085830101528094505050505092915050565b600080600080608085870312156110ec57600080fd5b843567ffffffffffffffff8082111561110457600080fd5b61111088838901611049565b955060208701359150811515821461112757600080fd5b9093506040860135908082111561113d57600080fd5b61114988838901611049565b9350606087013591508082111561115f57600080fd5b5061116c87828801611049565b91505092959194509250565b6000806000806080858703121561118e57600080fd5b84359350602085013567ffffffffffffffff808211156111ad57600080fd5b6111b988838901611049565b9450604087013591508082111561113d57600080fd5b6000806000606084860312156111e457600080fd5b833567ffffffffffffffff808211156111fc57600080fd5b61120887838801611049565b9450602086013591508082111561121e57600080fd5b61122a87838801611049565b9350604086013591508082111561124057600080fd5b5061124d86828701611049565b9150509250925092565b60006020828403121561126957600080fd5b813567ffffffffffffffff81111561128057600080fd5b61128c84828501611049565b949350505050565b60006020808301818452808551808352604092508286019150828160051b87010184880160005b8381101561134857888303603f19018552815180518452878101516001600160a01b0316888501528681015160a0888601819052906112fc82870182610f38565b915050606080830151868303828801526113168382610f38565b92505050608080830151925085820381870152506113348183610f38565b9689019694505050908601906001016112bb565b509098975050505050505050565b600181811c9082168061136a57607f821691505b6020821081141561138b57634e487b7160e01b600052602260045260246000fd5b50919050565b600082516113a3818460208701610f08565b9190910192915050565b6080815260006113c06080830187610f38565b82810360208401526113d28187610f38565b905082810360408401526113e68186610f38565b915050821515606083015295945050505050565b634e487b7160e01b600052601160045260246000fd5b60008219821115611423576114236113fa565b500190565b634e487b7160e01b600052603260045260246000fd5b6000600019821415611452576114526113fa565b506001019056fea264697066735822122033e4518ed77201621e2e58c283230bd96076a0a97073fb6710e5ec0d963382b764736f6c634300080a0033",
  "linkReferences": {},
  "deployedLinkReferences": {}
}